:100000000C942A000C9447000C9447000C94470071
:100010000C9447000C9447000C9447000C94470044
:100020000C9447000C9447000C9477050C941D0524
:100030000C9447000C9447000C9447000C94470024
:100040000C9447000C9447000C9447000C94470014
:100050000C94470011241FBECFE5D8E0DEBFCDBF12
:1000600010E0A0E6B0E0E4E4F4E102C005900D92F7
:10007000A836B107D9F720E0A8E6B0E001C01D928C
:10008000AA38B207E1F70E9495030C94200A0C9459
:100090000000843008F097C0683008F098C0423003
:1000A00008F099C0813051F138F0823009F448C02D
:1000B000833009F467C093C041110FC02AB381E0B7
:1000C00090E002C0880F991F6A95E2F7809582231D
:1000D0008ABB60E070E0CB010895413009F083C035
:1000E0002AB381E090E002C0880F991F6A95E2F779
:1000F000822B8ABB60E070E0CB01089541110FC0F4
:1001000027B381E090E002C0880F991F6A95E2F75B
:100110008095822387BB60E070E0CB010895413079
:1001200009F065C027B381E090E002C0880F991FF5
:100130006A95E2F7822B87BB60E070E0CB010895FF
:1001400041110FC024B381E090E002C0880F991FD5
:100150006A95E2F78095822384BB60E070E0CB0172
:100160000895413009F047C024B381E090E002C017
:10017000880F991F6A95E2F7822B84BB60E070E0DC
:10018000CB01089541110FC021B381E090E002C07E
:10019000880F991F6A95E2F78095822381BB60E002
:1001A00070E0CB010895413051F521B381E090E03A
:1001B00002C0880F991F6A95E2F7822B81BB60E02D
:1001C00070E0CB0108956FEF7FEFCB0108956FEFE3
:1001D0007FEFCB0108956FEF7FEFCB01089560E0D3
:1001E00070E0CB01089560E070E0CB01089560E01D
:1001F00070E0CB01089560E070E0CB01089560E00D
:1002000070E0CB010895833008F0D2C0643008F06C
:10021000D3C0483008F0D4C0813009F445C020F084
:10022000823009F485C0D0C06130A1F028F062307E
:10023000F9F0633059F1CCC02BB381E090E002C0FB
:10024000880F991F4A95E2F7822B8BBB60E070E024
:10025000CB01089528B381E090E002C0880F991F78
:100260004A95E2F7822B88BB60E070E0CB010895ED
:1002700025B381E090E002C0880F991F4A95E2F70C
:10028000822B85BB60E070E0CB01089522B381E052
:1002900090E002C0880F991F4A95E2F7822B82BB3B
:1002A00060E070E0CB0108956130A9F028F0623081
:1002B00009F1633071F190C02BB381E090E002C08E
:1002C000880F991F4A95E2F7809582238BBB60E0E7
:1002D00070E0CB01089528B381E090E002C0880F60
:1002E000991F4A95E2F78095822388BB60E070E011
:1002F000CB01089525B381E090E002C0880F991FDB
:100300004A95E2F78095822385BB60E070E0CB01DF
:10031000089522B381E090E002C0880F991F4A95AA
:10032000E2F78095822382BB60E070E0CB01089504
:100330006130A1F028F06230F9F0633059F150C01B
:100340002BB381E090E002C0880F991F4A95E2F735
:1003500082278BBB60E070E0CB01089528B381E079
:1003600090E002C0880F991F4A95E2F7822788BB68
:1003700060E070E0CB01089525B381E090E002C019
:10038000880F991F4A95E2F7822785BB60E070E0ED
:10039000CB01089522B381E090E002C0880F991F3D
:1003A0004A95E2F7822782BB60E070E0CB010895B6
:1003B0006FEF7FEFCB0108956FEF7FEFCB010895D3
:1003C0006FEF7FEFCB01089560E070E0CB010895FF
:1003D00060E070E0CB01089560E070E0CB0108952B
:1003E00060E070E0CB010895CF93823008F0E5C063
:1003F00090916800913009F0E4C0C62F882321F065
:10040000813009F46FC0E2C041E061E081E00E9408
:100410000301611571058105910509F0DBC042E01A
:1004200061E081E00E94030161157105810591057C
:1004300009F0D0C043E061E081E00E940301611552
:1004400071058105910509F0C5C08BB38F709C2F94
:10045000907F892B8BBB43E061E080E00E94030129
:10046000611571058105910509F0B4C08FE99FE020
:100470000197F1F700C0000043E061E081E00E94D5
:100480000301611571058105910509F0A3C0E0E143
:10049000CE9FC00111249BB39F70892B8BBB43E07F
:1004A00061E080E00E9403016115710581059105FD
:1004B00009F090C08FE99FE00197F1F700C00000BC
:1004C00043E061E081E00E9403016115710581054F
:1004D000910509F07FC0EFE1FEE43197F1F700C02C
:1004E000000078C041E061E080E00E9403016115F6
:1004F00071058105910509F06DC042E061E081E080
:100500000E940301611571058105910509F062C022
:1005100043E061E081E00E940301611571058105FE
:10052000910509F057C08BB38F709C2F907F892B5A
:100530008BBB43E061E080E00E940301611571051F
:100540008105910509F046C08FE99FE00197F1F719
:1005500000C0000043E061E081E00E9403016115FA
:10056000710581059105B1F5E0E1CE9FC00111242F
:100570009BB39F70892B8BBB43E061E080E00E94BE
:100580000301611571058105910521F58FE99FE052
:100590000197F1F700C0000043E061E081E00E94B4
:1005A00003016115710581059105A1F4EFE1FEE4F8
:1005B0003197F1F700C000000DC06FEF7FEFCB0166
:1005C00009C06CEF7FEF8FEF9FEF04C06DEF7FEFFF
:1005D0008FEF9FEFCF91089580916800811193C0B4
:1005E00081E08093680041E061E00E94490061156C
:1005F00071058105910509F08AC041E062E081E062
:100600000E944900611571058105910509F07FC0BF
:1006100041E063E081E00E944900611571058105B8
:10062000910509F074C08FE19EE40197F1F700C0D5
:10063000000041E067E080E00E944900611571051B
:100640008105910509F063C041E066E080E00E9409
:100650004900611571058105910509F058C041E017
:1006600065E080E00E9449006115710581059105F2
:1006700009F04DC041E064E080E00E94490061154E
:1006800071058105910509F042C063E380E00E9495
:10069000F4016115710581059105C9F58FE39FE1AD
:1006A0000197F1F700C0000062E380E00E94F401CE
:1006B000611571058105910551F58FE39FE1019762
:1006C000F1F700C0000068E280E00E94F4016115CB
:1006D000710581059105D9F461E080E00E94F40183
:1006E000611571058105910591F466E080E00E9435
:1006F000F401611571058105910549F46CE080E014
:100700000E94F40108956BEF7FEF8FEF9FEF089544
:1007100081110AC043E063E082E00E94030142E0ED
:1007200062E082E00E94030108950E94EC0240E032
:1007300060E081E00E94490041E063E083E00E94C4
:10074000490041E062E082E00E94490081E690E0D9
:100750000E94D10540E157E260E070E080E00E9435
:10076000A507B09B06C043E060E080E00E94030163
:10077000F8CF43E060E081E00E940301F2CF80E027
:1007800019C0282F30E0F901EE0FFF1FEE0FFF1FF9
:10079000EE0FFF1FE21BF30BEB58FF4F93E092832A
:1007A00094E0918321E034E0348323831682158220
:1007B00010828F5F833028F308958F929F92AF92BB
:1007C000BF92CF92DF92EF92FF92CF93C0917600CB
:1007D000C23008F067C06B017C01A0917800B09135
:1007E000790020E432E44FE050E00E94060A20E85D
:1007F0003EE340E050E00E94E409942F832F722FE3
:10080000662728EE33E040E050E00E94E409490109
:100810005A01A8EEB3E0A70196010E94060AA501BD
:1008200094010E94E409CA01B9010E94C0084B0169
:100830005C010E9491086B017C012FEFC21AD20A61
:10084000E20AF20AC701B6010E94C0089B01AC018E
:10085000C501B4010E942408C0927100D0927200B8
:10086000E0927300F092740020E030E040E853E43E
:100870000E9453099B01AC0160E070E08FE793E4B4
:100880000E9424080E949108C11105C062BF60E067
:1008900070E0CB010FC0C13051F46CBF60E070E07C
:1008A000CB0108C06AEF7FEF8FEF9FEF03C060E0DE
:1008B00070E0CB01CF91FF90EF90DF90CF90BF9091
:1008C000AF909F908F9008958F929F92AF92BF921A
:1008D000CF92DF92EF92FF9220917D00223008F0BC
:1008E00046C09B01AC01A8EEB3E00E94060ABC0121
:1008F000882799270E94C0084B015C010E9491083B
:100900006B017C010E94C0089B01AC01C501B401D0
:100910000E9424084B015C0120E030E0A9010E9404
:100920004E0918162CF48FEFC81AD80AE80AF80AEC
:10093000C0927100D0927200E0927300F092740045
:1009400020E030E040E857E4C501B4010E945309BB
:100950009B01AC0160E07FEF8FE797E40E942408E1
:100960000E9491086CBD60E070E0CB0104C06AEFAA
:100970007FEF8FEF9FEFFF90EF90DF90CF90BF90D2
:10098000AF909F908F9008958F929F92AF92BF9259
:10099000CF92DF92EF92FF9220918400223008F0F4
:1009A0003FC09B01AC01A8EEB3E00E94060A672F8E
:1009B000782F892F99270E94C0084B015C010E9463
:1009C00091086B017C010E94C0089B01AC01C5012C
:1009D000B4010E9424084B015C0120E030E0A90131
:1009E0000E944E0918162CF48FEFC81AD80AE80A8C
:1009F000F80AC0927100D0927200E0927300F092F7
:100A0000740020E030E040E853E4C501B4010E94E6
:100A100053090E94910864BD60E070E0CB0104C0FE
:100A20006AEF7FEF8FEF9FEFFF90EF90DF90CF9017
:100A3000BF90AF909F908F9008951F920F920FB626
:100A40000F9211242F933F934F935F936F937F9354
:100A50008F939F93AF93BF93EF93FF9380916D001C
:100A600090916E00A0916F00B09170000196A11D51
:100A7000B11D80936D0090936E00A0936F00B093B2
:100A8000700040916D0050916E0060916F00709108
:100A900070008091710090917200A0917300B091EC
:100AA0007400481759076A077B0781F410926D009C
:100AB00010926E0010926F0010927000E0917A0018
:100AC000F0917B00309711F080E00995FF91EF9154
:100AD000BF91AF919F918F917F916F915F914F9156
:100AE0003F912F910F900FBE0F901F9018951F925E
:100AF0000F920FB60F9211242F933F934F935F9352
:100B00006F937F938F939F93AF93BF93EF93FF93D5
:100B10008091690090916A00A0916B00B0916C0087
:100B20000196A11DB11D8093690090936A00A09366
:100B30006B00B0936C004091690050916A00609125
:100B40006B0070916C008091710090917200A09187
:100B50007300B0917400481759076A077B0781F446
:100B60001092690010926A0010926B0010926C0053
:100B7000E0917A00F0917B00309711F080E00995C8
:100B8000FF91EF91BF91AF919F918F917F916F9165
:100B90005F914F913F912F910F900FBE0F901F903B
:100BA0001895CF93DF93009709F4CEC0EC018091A4
:100BB0006000813021F40E94BF0310926000288100
:100BC000233008F0C5C03981323008F0C6C04A81F0
:100BD000443008F0C7C08D819E81892B09F4C7C0BD
:100BE000822F90E0FC01EE0FFF1FEE0FFF1FEE0FB4
:100BF000FF1FE81BF90BEB58FF4F50815111BCC090
:100C0000FC01EE0FFF1FEE0FFF1FEE0FFF1FE81B93
:100C1000F90BEB58FF4F5281533009F0B2C0FC0181
:100C2000EE0FFF1FEE0FFF1FEE0FFF1FE81BF90B6C
:100C3000EB58FF4F5181543009F0A8C0FC01EE0F72
:100C4000FF1FEE0FFF1FEE0FFF1FE81BF90BEB5806
:100C5000FF4F638174816130744009F09CC0FC01D6
:100C6000EE0FFF1FEE0FFF1FEE0FFF1FE81BF90B2C
:100C7000EB58FF4F85819681892B09F091C0222383
:100C800021F02330F0F180E03FC0311111C041115B
:100C900007C08FB780688FBF89B7816089BF08C0E0
:100CA000413031F48FB780688FBF89B7826089BFC8
:100CB0008A81811108C083B78F7B83BF83B7877F09
:100CC00083BF81E021C0813041F483B78F7B83BF34
:100CD00083B7886083BF81E017C0823041F483B757
:100CE000806483BF83B7886083BF81E00DC0833099
:100CF00051F483B7806483BF83B7877F83BF81E06C
:100D000003C081E001C081E0813009F04EC08881DC
:100D1000282F30E0F901EE0FFF1FEE0FFF1FEE0F3F
:100D2000FF1FE21BF30BEB58FF4F82838A81818305
:100D30008B819C81948383838D819E81968385831F
:100D400060E070E0CB0134C06FEF7FEFCB0130C0CB
:100D50006AEF7FEF8FEF9FEF2BC06AEF7FEF8FEF90
:100D60009FEF26C06AEF7FEF8FEF9FEF21C06AEF02
:100D70007FEF8FEF9FEF1CC06BEF7FEF8FEF9FEF49
:100D800017C06BEF7FEF8FEF9FEF12C06BEF7FEF1E
:100D90008FEF9FEF0DC06BEF7FEF8FEF9FEF08C0DE
:100DA0006BEF7FEF8FEF9FEF03C060E070E0CB0150
:100DB000DF91CF910895833008F0B9C0282F30E03B
:100DC000F901EE0FFF1FEE0FFF1FEE0FFF1FE21BDB
:100DD000F30BEB58FF4F908191113CC0F901EE0FDE
:100DE000FF1FEE0FFF1FEE0FFF1FE21BF30BEB5871
:100DF000FF4F4281433071F5F901EE0FFF1FEE0FF7
:100E0000FF1FEE0FFF1FE21BF30BEB58FF4F438159
:100E1000548141305440F1F4F901EE0FFF1FEE0F01
:100E2000FF1FEE0FFF1FE21BF30BEB58FF4F41813B
:100E3000443081F4F901EE0FFF1FEE0FFF1FEE0F9C
:100E4000FF1FE21BF30BEB58FF4F45815681452BEB
:100E500009F471C0911174C0882341F0833008F007
:100E60004CC041E060E070E0CB0151C0F901EE0FF1
:100E7000FF1FEE0FFF1FEE0FFF1FE21BF30BEB58E0
:100E8000FF4F8381948180349105F9F030F48130F3
:100E9000910559F0089789F036C0811541E0940713
:100EA000E1F08115944009F12EC083B7816083BFC2
:100EB00041E060E070E0CB012AC083B7826083BF6D
:100EC00041E060E070E0CB0122C083B7836083BF64
:100ED00041E060E070E0CB011AC083B7846083BF5B
:100EE00041E060E070E0CB0112C083B7856083BF52
:100EF00041E060E070E0CB010AC040E06AEF7FEFC4
:100F00008FEF9FEF04C041E060E070E0CB01413023
:100F1000D9F4F901EE0FFF1FEE0FFF1FEE0FFF1FB9
:100F2000E21BF30BEB58FF4F21E0208308956FEF96
:100F30007FEFCB0108956CEF7FEF8FEF9FEF089568
:100F40006EEF7FEF8FEF9FEF0895CF92DF92EF92DA
:100F5000FF92833008F05DC04115510561057105B0
:100F600009F45BC0282F30E0F901EE0FFF1FEE0FF0
:100F7000FF1FEE0FFF1FE21BF30BEB58FF4F90819B
:100F800091112BC0F901EE0FFF1FEE0FFF1FEE0FA7
:100F9000FF1FE21BF30BEB58FF4FE281E330E9F454
:100FA000F901EE0FFF1FEE0FFF1FEE0FFF1FE21BF9
:100FB000F30BEB58FF4FE181E43079F4F901EE0FC8
:100FC000FF1FEE0FFF1FEE0FFF1FE21BF30BEB588F
:100FD000FF4F25813681232B21F1911127C06A0112
:100FE0007B01813061F018F0823071F024C080E024
:100FF0000E94DB06C701B6010E94DD0320C0CB01C1
:10100000BA010E9464041BC0CB01BA010E94C4044F
:1010100016C06FEF7FEFCB0112C06FEF7FEFCB01F8
:101020000EC06CEF7FEF8FEF9FEF09C06AEF7FEF8D
:101030008FEF9FEF04C06DEF7FEF8FEF9FEFFF907B
:10104000EF90DF90CF9008955058BB27AA270E94B9
:101050003C080C9414090E94060938F00E940D09FE
:1010600020F039F49F3F19F426F40C9403090EF490
:10107000E095E7FB0C94FD08E92F0E94250958F341
:10108000BA17620773078407950720F079F4A6F56D
:101090000C9447090EF4E0950B2EBA2FA02D0B01EE
:1010A000B90190010C01CA01A0011124FF27591BAD
:1010B00099F0593F50F4503E68F11A16F040A22FB3
:1010C000232F342F4427585FF3CF46953795279524
:1010D000A795F0405395C9F77EF41F16BA0B620B23
:1010E000730B840BBAF09150A1F0FF0FBB1F661F6A
:1010F000771F881FC2F70EC0BA0F621F731F841FAD
:1011000048F4879577956795B795F7959E3F08F0D2
:10111000B0CF9395880F08F09927EE0F9795879594
:1011200008950E942D0988F09F5798F0B92F9927AC
:10113000B751B0F0E1F0660F771F881F991F1AF0C2
:10114000BA95C9F714C0B13091F00E944709B1E0D7
:1011500008950C944709672F782F8827B85F39F0D6
:10116000B93FCCF3869577956795B395D9F73EF45B
:1011700090958095709561957F4F8F4F9F4F089503
:10118000E89409C097FB3EF4909580957095619521
:101190007F4F8F4F9F4F9923A9F0F92F96E9BB27D7
:1011A0009395F695879577956795B795F111F8CF53
:1011B000FAF4BB0F11F460FF1BC06F5F7F4F8F4FBE
:1011C0009F4F16C0882311F096E911C0772321F0B4
:1011D0009EE8872F762F05C0662371F096E8862F4C
:1011E00070E060E02AF09A95660F771F881FDAF7A3
:1011F000880F9695879597F9089597F99F6780E8E6
:1012000070E060E008959FEF80EC089500240A9458
:101210001616170618060906089500240A941216D1
:101220001306140605060895092E0394000C11F404
:10123000882352F0BB0F40F4BF2B11F460FF04C0B1
:101240006F5F7F4F8F4F9F4F089557FD9058440F0A
:10125000551F59F05F3F71F04795880F97FB991F15
:1012600061F09F3F79F087950895121613061406D2
:10127000551FF2CF4695F1DF08C01616170618065F
:10128000991FF1CF86957105610508940895E8943A
:10129000BB2766277727CB0197F908950E94C009DD
:1012A00008F48FEF08950E9466090C9414090E94B7
:1012B000060938F00E940D0920F0952311F00C94D6
:1012C000FD080C94030911240C9448090E94250977
:1012D00070F3959FC1F3950F50E0551F629FF00189
:1012E000729FBB27F00DB11D639FAA27F00DB11DA2
:1012F000AA1F649F6627B00DA11D661F829F22272B
:10130000B00DA11D621F739FB00DA11D621F839FB1
:10131000A00D611D221F749F3327A00D611D231F87
:10132000849F600D211D822F762F6A2F11249F57D5
:1013300050409AF0F1F088234AF0EE0FFF1FBB1FD8
:10134000661F771F881F91505040A9F79E3F510597
:1013500080F00C94FD080C9448095F3FE4F3983E3C
:10136000D4F3869577956795B795F795E7959F5F41
:10137000C1F7FE2B880F911D9695879597F90895D3
:10138000990F0008550FAA0BE0E8FEEF1616170696
:10139000E807F907C0F012161306E407F50798F0FE
:1013A000621B730B840B950B39F40A2661F0232B17
:1013B000242B252B21F408950A2609F4A140A69593
:1013C0008FEF811D811D0895A1E21A2EAA1BBB1B60
:1013D000FD010DC0AA1FBB1FEE1FFF1FA217B30701
:1013E000E407F50720F0A21BB30BE40BF50B661F17
:1013F000771F881F991F1A9469F7609570958095DB
:1014000090959B01AC01BD01CF0108950E94110A86
:10141000A59F900DB49F900DA49F800D911D112448
:101420000895A29FB001B39FC001A39F700D811DBD
:101430001124911DB29F700D811D1124911D0895DD
:04144000F894FFCF4E
:0814440001000001080088030B
:00000001FF
