:100000000C942A000C9447000C9447000C94470071
:100010000C9447000C9447000C9447000C94470044
:100020000C9447000C9447000C9447000C94470034
:100030000C9447000C9447000C9447000C94470024
:100040000C9447000C9447000C9447000C94470014
:100050000C94470011241FBECFE5D8E0DEBFCDBF12
:1000600010E0A0E6B0E0E2ECF8E002C005900D92EE
:10007000A237B107D9F720E0A2E7B0E001C01D9296
:10008000A337B207E1F70E94FA030C945F040C94C3
:100090000000843008F08EC0683008F08EC0423016
:1000A00008F08EC0813041F138F0823009F444C04C
:1000B000833009F460C087C041110EC02AB381E0CB
:1000C00090E002C0880F991F6A95E2F7809582231D
:1000D0008ABB80E090E00895413009F077C02AB3F0
:1000E00081E090E002C0880F991F6A95E2F7822BA9
:1000F0008ABB80E090E0089541110EC027B381E0F3
:1001000090E002C0880F991F6A95E2F780958223DC
:1001100087BB80E090E00895413009F05AC027B3D2
:1001200081E090E002C0880F991F6A95E2F7822B68
:1001300087BB80E090E0089541110EC024B381E0B8
:1001400090E002C0880F991F6A95E2F7809582239C
:1001500084BB80E090E008954130F1F524B381E064
:1001600090E002C0880F991F6A95E2F7822B84BB4A
:1001700080E090E0089541110EC021B381E090E04D
:1001800002C0880F991F6A95E2F78095822381BB90
:1001900080E090E00895413011F521B381E090E0D6
:1001A00002C0880F991F6A95E2F7822B81BB80E01D
:1001B00090E008958FEF9FEF08958FEF9FEF0895E0
:1001C0008FEF9FEF089580E090E0089580E090E049
:1001D000089580E090E0089580E090E0089580E048
:1001E00090E00895833008F0C6C0643008F0C6C0BF
:1001F000483008F0C6C0813009F441C020F0823098
:1002000009F47DC0C1C0613099F028F06230E9F096
:10021000633041F1BCC02BB381E090E002C0880F95
:10022000991F4A95E2F7822B8BBB80E090E00895FE
:1002300028B381E090E002C0880F991F4A95E2F749
:10024000822B88BB80E090E0089525B381E090E0A8
:1002500002C0880F991F4A95E2F7822B85BB80E088
:1002600090E0089522B381E090E002C0880F991FCA
:100270004A95E2F7822B82BB80E090E008956130DE
:10028000A1F028F06230F9F0633059F183C02BB34C
:1002900081E090E002C0880F991F4A95E2F78095AF
:1002A00082238BBB80E090E0089528B381E090E04A
:1002B00002C0880F991F4A95E2F78095822388BB78
:1002C00080E090E0089525B381E090E002C0880FBF
:1002D000991F4A95E2F78095822385BB80E090E0E4
:1002E000089522B381E090E002C0880F991F4A95DB
:1002F000E2F78095822382BB80E090E00895613030
:1003000099F028F06230E9F0633041F146C02BB338
:1003100081E090E002C0880F991F4A95E2F782279A
:100320008BBB80E090E0089528B381E090E002C0AC
:10033000880F991F4A95E2F7822788BB80E090E0FA
:10034000089525B381E090E002C0880F991F4A9577
:10035000E2F7822785BB80E090E0089522B381E038
:1003600090E002C0880F991F4A95E2F7822782BB6E
:1003700080E090E008958FEF9FEF08958FEF9FEF5B
:1003800008958FEF9FEF089580E090E0089580E05A
:1003900090E0089580E090E0089580E090E0089576
:1003A000CF93823008F0BAC090917200913009F07A
:1003B000B8C0C62F882321F0813009F45AC0B4C0D8
:1003C00041E061E081E00E94F200009709F0AEC0D8
:1003D00042E061E081E00E94F200009709F0A6C0CF
:1003E00043E061E081E00E94F200009709F09EC0C6
:1003F0008BB38F709C2F907F892B8BBB43E061E088
:1004000080E00E94F200009709F090C08FE99FE021
:100410000197F1F700C0000043E061E081E00E9435
:10042000F200009709F082C0E0E1CE9FC0011124E4
:100430009BB39F70892B8BBB43E061E080E00E94FF
:10044000F200009709F072C08FE99FE00197F1F781
:1004500000C0000043E061E081E00E94F2000097EC
:1004600009F064C0EFE1FEE43197F1F700C000004D
:100470005DC041E061E080E00E94F200009709F079
:1004800055C042E061E081E00E94F200009709F06F
:100490004DC043E061E081E00E94F200009709F066
:1004A00045C08BB38F709C2F907F892B8BBB43E013
:1004B00061E080E00E94F2000097C1F58FE99FE0C3
:1004C0000197F1F700C0000043E061E081E00E9485
:1004D000F200009759F5E0E1CE9FC00111249BB3D3
:1004E0009F70892B8BBB43E061E080E00E94F200AB
:1004F0000097E1F48FE99FE00197F1F700C0000059
:1005000043E061E081E00E94F200009779F4EFE1BE
:10051000FEE43197F1F700C0000008C08FEF9FEFB5
:1005200005C08CEF9FEF02C08DEF9FEFCF91089534
:100530008091720081116DC081E08093720041E072
:1005400061E00E944900009709F065C041E062E067
:1005500081E00E944900009709F05DC041E063E03E
:1005600081E00E944900009709F055C08FE19EE4A8
:100570000197F1F700C0000041E067E080E00E94D1
:100580004900009709F047C041E066E080E00E9422
:100590004900009709F03FC041E065E080E00E941B
:1005A00049000097C1F541E064E080E00E94490005
:1005B000009789F563E380E00E94D001009759F528
:1005C0008FE39FE10197F1F700C0000062E380E054
:1005D0000E94D0010097F9F48FE39FE10197F1F7B2
:1005E00000C0000068E280E00E94D001009799F40A
:1005F00061E080E00E94D001009769F466E080E04D
:100600000E94D001009739F46CE080E00E94D00194
:1006100008958BEF9FEF0895EF92FF920F931F9332
:10062000CF93DF937B0190917200913009F082C0EB
:10063000823008F082C0811183C06115710531F4E8
:1006400060E381E00E94D001FC010DC077234CF4EF
:100650006DE281E00E94D001FC01F194E194F10887
:1006600002C0E0E0F0E001E010E0C0E0D0E025C032
:10067000CE01880F991FCC0FDD1FCC0FDD1FCC0FD3
:10068000DD1FC80FD91FC7016AE070E00E9428046F
:10069000C80FD91F209759F4C801880F991F000F60
:1006A000111F000F111F000F111F080F191FC70185
:1006B0006AE070E00E9428047B01E114F104C1F6B5
:1006C000E12CF12C33C09E01ADECBCEC0E943C044B
:1006D000969587959695879596958795BC01660F13
:1006E000771F880F991F880F991F880F991F860FF2
:1006F000971F281B390B60E3620F81E00E94D00135
:10070000FC019E01ADECBCEC0E943C04EC01D695D2
:10071000C795D695C795D695C795209739F40A30D1
:10072000110520F0E801EE24E394F12CCE15DF054D
:1007300051F608C0ECEFFFEF05C0EFEFFFEF02C08E
:10074000E0E0F0E0CF01DF91CF911F910F91FF909A
:10075000EF9008950F931F93CF93DF932091720032
:100760002130C1F40097C9F061110CC08FEF9FEFE9
:1007700016C0F801EC0FF11D608181E00E94D001EC
:10078000CF5F05C0D62F8C01C0E080E090E0CD1790
:1007900080F305C08CEF9FEF02C08FEF9FEFDF91DA
:1007A000CF911F910F91089590917200913089F42B
:1007B000823090F4603198F4811104C060580E9436
:1007C000D0010895813071F4605480E00E94D0011E
:1007D00008958CEF9FEF08958EEF9FEF08958EEFB1
:1007E0009FEF089580E090E0089561E080E00E942E
:1007F000D00108950E94980240E060E081E00E94EC
:10080000490041E063E080E00E94490061E481E04A
:100810000E94D0010E94F50360E180E690E00E9412
:10082000AA0360E081E00E94D4036EE27BEF80E0E7
:100830000E940C03B09B06C043E060E080E00E9491
:10084000F200F8CF43E060E081E00E94F200F2CFD6
:1008500097FB072E16F4009407D077FD09D00E946D
:100860004B0407FC05D03EF4909581959F4F089569
:10087000709561957F4F0895A29FB001B39FC0010D
:10088000A39F700D811D1124911DB29F700D811DBC
:100890001124911D0895AA1BBB1B51E107C0AA1F7B
:1008A000BB1FA617B70710F0A61BB70B881F991F11
:1008B0005A95A9F780959095BC01CD010895F894BB
:0208C000FFCF68
:1008C20048656C6C6F204D696E612052616F756670
:0208D200000024
:00000001FF
