:100000000C942A000C9447000C9447000C94470071
:100010000C94CA080C9470080C9447000C94470088
:100020000C9447000C9447000C9416080C94BC07E1
:100030000C9447000C9447000C9447000C94470024
:100040000C9447000C9447000C9447000C94470014
:100050000C94470011241FBECFE5D8E0DEBFCDBF12
:1000600010E0A0E6B0E0E4EEFBE102C005900D92E6
:10007000AC38B107D9F720E0ACE8B0E001C01D9280
:10008000AE3BB207E1F70E94F9040C94F00D0C941A
:1000900000000895843008F097C0683008F098C0D8
:1000A000423008F099C0813051F138F0823009F4C3
:1000B00048C0833009F467C093C041110FC02AB310
:1000C00081E090E002C0880F991F6A95E2F7809561
:1000D00082238ABB60E070E0CB010895413009F0D3
:1000E00083C02AB381E090E002C0880F991F6A950F
:1000F000E2F7822B8ABB60E070E0CB0108954111EA
:100100000FC027B381E090E002C0880F991F6A9565
:10011000E2F78095822387BB60E070E0CB01089511
:10012000413009F065C027B381E090E002C0880F3C
:10013000991F6A95E2F7822B87BB60E070E0CB01E4
:10014000089541110FC024B381E090E002C0880FF0
:10015000991F6A95E2F78095822384BB60E070E086
:10016000CB010895413009F047C024B381E090E00D
:1001700002C0880F991F6A95E2F7822B84BB60E06A
:1001800070E0CB01089541110FC021B381E090E0F0
:1001900002C0880F991F6A95E2F78095822381BB80
:1001A00060E070E0CB010895413051F521B381E06A
:1001B00090E002C0880F991F6A95E2F7822B81BBFD
:1001C00060E070E0CB0108956FEF7FEFCB01089501
:1001D0006FEF7FEFCB0108956FEF7FEFCB010895B5
:1001E00060E070E0CB01089560E070E0CB0108951D
:1001F00060E070E0CB01089560E070E0CB0108950D
:1002000060E070E0CB010895833008F0D2C0643024
:1002100008F0D3C0483008F0D4C0813009F445C09C
:1002200020F0823009F485C0D0C06130A1F028F000
:100230006230F9F0633059F1CCC02BB381E090E02B
:1002400002C0880F991F4A95E2F7822B8BBB60E0B2
:1002500070E0CB01089528B381E090E002C0880FE0
:10026000991F4A95E2F7822B88BB60E070E0CB01D2
:10027000089525B381E090E002C0880F991F4A9548
:10028000E2F7822B85BB60E070E0CB01089522B3DA
:1002900081E090E002C0880F991F4A95E2F7822B17
:1002A00082BB60E070E0CB0108956130A9F028F0D6
:1002B000623009F1633071F190C02BB381E090E0BE
:1002C00002C0880F991F4A95E2F7809582238BBB65
:1002D00060E070E0CB01089528B381E090E002C0B7
:1002E000880F991F4A95E2F78095822388BB60E0CA
:1002F00070E0CB01089525B381E090E002C0880F43
:10030000991F4A95E2F78095822385BB60E070E0F3
:10031000CB01089522B381E090E002C0880F991FBD
:100320004A95E2F78095822382BB60E070E0CB01C2
:1003300008956130A1F028F06230F9F0633059F18E
:1003400050C02BB381E090E002C0880F991F4A95FE
:10035000E2F782278BBB60E070E0CB01089528B301
:1003600081E090E002C0880F991F4A95E2F782274A
:1003700088BB60E070E0CB01089525B381E090E098
:1003800002C0880F991F4A95E2F7822785BB60E07B
:1003900070E0CB01089522B381E090E002C0880FA5
:1003A000991F4A95E2F7822782BB60E070E0CB019B
:1003B00008956FEF7FEFCB0108956FEF7FEFCB01D3
:1003C00008956FEF7FEFCB01089560E070E0CB01FF
:1003D000089560E070E0CB01089560E070E0CB012B
:1003E000089560E070E0CB010895CF92DF92EF9224
:1003F000FF920F931F93CF93823008F082C19091A8
:100400008C00913009F082C1C62F882321F0813001
:1004100009F4BCC084C141E061E081E00E940401B4
:100420006B017C01672B682B692B59F009E610E002
:1004300020E030E042E650E060E081E00E944900C8
:1004400076C142E061E081E00E9404016B017C0121
:10045000672B682B692B59F00CE610E020E030E0A8
:1004600042E650E060E081E00E94490060C143E064
:1004700061E081E00E9404016B017C01672B682B25
:10048000692B59F00FE610E020E030E042E650E042
:1004900060E081E00E9449004AC18BB38F709C2FBD
:1004A000907F892B8BBB43E061E080E00E940401D8
:1004B0006B017C01672B682B692B59F006E710E074
:1004C00020E030E042E650E060E081E00E94490038
:1004D0002EC18FE99FE00197F1F700C0000043E0D3
:1004E00061E081E00E9404016B017C01672B682BB5
:1004F000692B59F00BE710E020E030E042E650E0D5
:1005000060E081E00E94490012C120E1C29FC00169
:1005100011249BB39F70892B8BBB43E061E080E08B
:100520000E9404016B017C01672B682B692B59F039
:1005300002E810E020E030E042E650E060E081E0D8
:100540000E944900F4C08FE99FE00197F1F700C0D5
:10055000000043E061E081E00E9404016B017C0146
:10056000672B682B692B59F007E810E020E030E09A
:1005700042E650E060E081E00E944900D8C08FE18F
:100580009EE40197F1F700C00000D1C041E061E0B6
:1005900080E00E9404016B017C01672B682B692BB2
:1005A00059F004E910E020E030E042E650E060E07D
:1005B00081E00E944900BBC042E061E081E00E940E
:1005C00004016B017C01672B682B692B59F007E94B
:1005D00010E020E030E042E650E060E081E00E9480
:1005E0004900A5C043E061E081E00E9404016B0185
:1005F0007C01672B682B692B59F00AE910E020E099
:1006000030E042E650E060E081E00E9449008FC0A7
:100610008BB38F709C2F907F892B8BBB43E061E065
:1006200080E00E9404016B017C01672B682B692B21
:1006300059F001EA10E020E030E042E650E060E0EE
:1006400081E00E94490073C08FE99FE00197F1F7B4
:1006500000C0000043E061E081E00E9404016B0102
:100660007C01672B682B692B59F006EA10E020E02B
:1006700030E042E650E060E081E00E94490057C06F
:1006800020E1C29FC00111249BB39F70892B8BBBBB
:1006900043E061E080E00E9404016B017C01672B74
:1006A000682B692B59F00DEA10E020E030E042E6BB
:1006B00050E060E081E00E94490039C08FE99FE08E
:1006C0000197F1F700C0000043E061E081E00E9483
:1006D00004016B017C01672B682B692B59F002EB3D
:1006E00010E020E030E042E650E060E081E00E946F
:1006F00049001DC08FE19EE40197F1F700C00000A2
:1007000016C0CC24CA94DC2C760111C00F2EFCEF4D
:10071000CF2EDD24DA94ED2CFD2CF02D08C00F2E09
:10072000FDEFCF2EDD24DA94ED2CFD2CF02DC7014A
:10073000B601CF911F910F91FF90EF90DF90CF9076
:100740000895CF92DF92EF92FF920F931F938091C3
:100750008C0081112CC181E080938C0041E061E02C
:100760000E944A006B017C01672B682B692B59F0B2
:1007700004E210E020E030E045E750E060E081E096
:100780000E9449001CC141E062E081E00E944A00F1
:100790006B017C01672B682B692B59F006E210E096
:1007A00020E030E045E750E060E081E00E94490051
:1007B00006C141E063E081E00E944A006B017C01D8
:1007C000672B682B692B59F008E210E020E030E03D
:1007D00045E750E060E081E00E944900F0C08FE111
:1007E0009EE40197F1F700C0000041E067E080E07F
:1007F0000E944A006B017C01672B682B692B59F022
:100800000DE210E020E030E045E750E060E081E0FC
:100810000E944900D4C041E066E080E00E944A00A6
:100820006B017C01672B682B692B59F00FE210E0FC
:1008300020E030E045E750E060E081E00E944900C0
:10084000BEC041E065E080E00E944A006B017C018F
:10085000672B682B692B59F001E310E020E030E0B2
:1008600045E750E060E081E00E944900A8C041E017
:1008700064E080E00E944A006B017C01672B682BDA
:10088000692B59F003E310E020E030E045E750E049
:1008900060E081E00E94490092C063E380E00E9432
:1008A000F5016B017C01672B682B692B59F006E37E
:1008B00010E020E030E045E750E060E081E00E9499
:1008C00049007DC08FE39FE10197F1F700C0000070
:1008D00062E380E00E94F5016B017C01672B682BCD
:1008E000692B59F009E310E020E030E045E750E0E3
:1008F00060E081E00E94490062C08FE39FE10197C0
:10090000F1F700C0000068E280E00E94F5016B0191
:100910007C01672B682B692B59F001E410E020E083
:1009200030E045E750E060E081E00E94490047C0C8
:1009300061E080E00E94F5016B017C01672B682B70
:10094000692B59F005E410E020E030E045E750E085
:1009500060E081E00E94490032C066E080E00E94D1
:10096000F5016B017C01672B682B692B59F007E4BB
:1009700010E020E030E045E750E060E081E00E94D8
:1009800049001DC06CE080E00E94F5016B017C0114
:10099000672B682B692B99F009E410E020E030E028
:1009A00045E750E060E081E00E94490008C00F2E5A
:1009B000FBEFCF2EDD24DA94ED2CFD2CF02DC701BA
:1009C000B6011F910F91FF90EF90DF90CF900895A7
:1009D000882319F0823039F0089542E062E082E025
:1009E0000E940401089543E063E082E00E94040154
:1009F00008950E94A10340E060E081E00E944A0067
:100A000041E063E083E00E944A0041E062E082E06E
:100A10000E944A008EE790E00E94240985E890E059
:100A20000E94240948E853E160E070E080E00E9401
:100A3000930B40ED57E060E070E082E00E94930B82
:100A40000E94180CB09B06C043E060E080E00E946A
:100A50000401F6CF43E060E081E00E940401F0CFA2
:100A600080E019C0282F30E0F901EE0FFF1FEE0FD4
:100A7000FF1FEE0FFF1FE21BF30BE755FF4F93E045
:100A8000928394E0918321E034E0348323831682BF
:100A9000158210828F5F833028F308958F929F9282
:100AA000AF92BF92CF92DF92EF92FF92CF93C0911D
:100AB000AA00C23008F067C06B017C01A091AC00B5
:100AC000B091AD0020E432E44FE050E00E94D60D3A
:100AD00020E83EE340E050E00E94B40D942F832FC5
:100AE000722F662728EE33E040E050E00E94B40DFC
:100AF00049015A01A8EEB3E0A70196010E94D60D64
:100B0000A50194010E94B40DCA01B9010E94B90C5B
:100B10004B015C010E948A0C6B017C012FEFC21A11
:100B2000D20AE20AF20AC701B6010E94B90C9B017F
:100B3000AC01C501B4010E941D0CC092A500D09269
:100B4000A600E092A700F092A80020E030E040E884
:100B500053E40E94470D9B01AC0160E070E08FE719
:100B600093E40E941D0C0E948A0CC11105C062BF53
:100B700060E070E0CB010FC0C13051F46CBF60E0A9
:100B800070E0CB0108C06AEF7FEF8FEF9FEF03C0EB
:100B900060E070E0CB01CF91FF90EF90DF90CF90BD
:100BA000BF90AF909F908F9008958F929F92AF9239
:100BB000BF92CF92DF92EF92FF92CF93DF9320917B
:100BC000B100223008F068C06B017C01C9EAD0E0B6
:100BD000AB81BC8120E432E44FE050E00E94D60DAE
:100BE00020E83EE340E050E00E94B40D942F832FB4
:100BF000722F662728EE33E040E050E00E94B40DEB
:100C000049015A01A8EEB3E0A70196010E94D60D52
:100C1000A50194010E94B40DCA01B9010E94B90C4A
:100C20004B015C010E948A0C6B017C012FEFC21A00
:100C3000D20AE20AF20AC701B6010E94B90C9B016E
:100C4000AC01C501B4010E941D0CC092A100D0925C
:100C5000A200E092A300F092A40020E030E040E87F
:100C600053E40E94470D9B01AC0160E070E08FE708
:100C700093E40E941D0C0E948A0C8981811105C099
:100C80006CBD60E070E0CB010FC0813051F46ABDF3
:100C900060E070E0CB0108C06AEF7FEF8FEF9FEF5D
:100CA00003C060E070E0CB01DF91CF91FF90EF9047
:100CB000DF90CF90BF90AF909F908F9008958F92CC
:100CC0009F92AF92BF92CF92DF92EF92FF92CF931B
:100CD000DF932091B800223008F068C06B017C01DE
:100CE000C9EAD0E0AB81BC8120E432E44FE050E0BF
:100CF0000E94D60D20E83EE340E050E00E94B40D93
:100D0000942F832F722F662728EE33E040E050E0C7
:100D10000E94B40D49015A01A8EEB3E0A701960163
:100D20000E94D60DA50194010E94B40DCA01B9011B
:100D30000E94B90C4B015C010E948A0C6B017C0182
:100D40002FEFC21AD20AE20AF20AC701B6010E94C4
:100D5000B90C9B01AC01C501B4010E941D0CC092ED
:100D6000A100D092A200E092A300F092A40020E0A3
:100D700030E040E853E40E94470D9B01AC0160E085
:100D800070E08FE793E40E941D0C0E948A0C898119
:100D9000811105C064BD60E070E0CB010FC08130FF
:100DA00051F463BD60E070E0CB0108C06AEF7FEFF3
:100DB0008FEF9FEF03C060E070E0CB01DF91CF9138
:100DC000FF90EF90DF90CF90BF90AF909F908F906B
:100DD0000895833010F491E001C090E0913009F063
:100DE000CAC0282F30E0F901EE0FFF1FEE0FFF1FE2
:100DF000EE0FFF1FE21BF30BE755FF4F918191119F
:100E00005EC081112BC008B600FCFDCF80918D0023
:100E100090918E00A0918F00B09190000196A11D3D
:100E2000B11D80938D0090938E00A0938F00B0939E
:100E300090004091A5005091A6006091A70070918C
:100E4000A80084179507A607B70709F094C0E0919A
:100E5000AE00F091AF0080E009950895813009F46B
:100E60008AC0823009F087C008B606FEFDCF8091A7
:100E70008D0090918E00A0918F00B091900001960E
:100E8000A11DB11D80938D0090938E00A0938F00C3
:100E9000B09390004091A1005091A2006091A300F6
:100EA0007091A40084179507A607B70709F063C0DF
:100EB000E091BC00F091BD0082E009950895913069
:100EC00009F059C081112AC008B601FEFDCF8091FA
:100ED0008D0090918E00A0918F00B09190000196AE
:100EE000A11DB11D80938D0090938E00A0938F0063
:100EF000B09390004091A1005091A2006091A30096
:100F00007091A40084179507A607B707A1F5E09193
:100F1000BC00F091BD0082E009950895813059F13F
:100F2000823049F508B607FEFDCF80918D00909183
:100F30008E00A0918F00B09190000196A11DB11D6F
:100F400080938D0090938E00A0938F00B0939000BB
:100F50004091A1005091A2006091A3007091A40063
:100F600084179507A607B70731F4E091BC00F0910C
:100F7000BD0082E0099508951F920F920FB60F925F
:100F800011242F933F934F935F936F937F938F938E
:100F90009F93AF93BF93EF93FF9380919D009091A8
:100FA0009E00A0919F00B091A0000196A11DB11DCF
:100FB00080939D0090939E00A0939F00B093A0000B
:100FC00040919D0050919E0060919F007091A00003
:100FD0008091A5009091A600A091A700B091A800D3
:100FE000481759076A077B0781F410929D001092F9
:100FF0009E0010929F001092A000E091AE00F09130
:10100000AF00309711F080E00995FF91EF91BF910B
:10101000AF919F918F917F916F915F914F913F9190
:101020002F910F900FBE0F901F9018951F920F9247
:101030000FB60F9211242F933F934F935F936F93AB
:101040007F938F939F93AF93BF93EF93FF93809181
:10105000990090919A00A0919B00B0919C000196FC
:10106000A11DB11D8093990090939A00A0939B00BD
:10107000B0939C004091990050919A0060919B0020
:1010800070919C008091A5009091A600A091A7006E
:10109000B091A800481759076A077B0781F410929E
:1010A000990010929A0010929B0010929C00E0917F
:1010B000AE00F091AF00309711F080E00995FF91FC
:1010C000EF91BF91AF919F918F917F916F915F91C0
:1010D0004F913F912F910F900FBE0F901F90189539
:1010E0001F920F920FB60F9211242F933F934F939D
:1010F0005F936F937F938F939F93AF93BF93EF9380
:10110000FF938091950090919600A0919700B091E7
:1011100098000196A11DB11D8093950090939600B3
:10112000A0939700B093980040919500509196003D
:1011300060919700709198008091A1009091A20019
:10114000A091A300B091A400481759076A077B0734
:1011500081F41092950010929600109297001092D0
:101160009800E091BC00F091BD00309711F082E052
:101170000995FF91EF91BF91AF919F918F917F91D1
:101180006F915F914F913F912F910F900FBE0F90F4
:101190001F9018951F920F920FB60F9211242F9344
:1011A0003F934F935F936F937F938F939F93AF93EF
:1011B000BF93EF93FF938091910090919200A09143
:1011C0009300B09194000196A11DB11D80939100F0
:1011D00090939200A0939300B0939400409191005B
:1011E0005091920060919300709194008091A100C1
:1011F0009091A200A091A300B091A40048175907B4
:101200006A077B0781F4109291001092920010926D
:10121000930010929400E091BC00F091BD003097D3
:1012200011F082E00995FF91EF91BF91AF919F91ED
:101230008F917F916F915F914F913F912F910F907F
:101240000FBE0F901F901895CF93DF93009709F46E
:101250001BC1EC0180916100813021F40E943005B6
:10126000109261002881233008F012C13981323098
:1012700008F013C14A81443008F014C18D819E8169
:10128000892B09F414C1822F90E0FC01EE0FFF1F9F
:10129000EE0FFF1FEE0FFF1FE81BF90BE755FF4F87
:1012A0005081511109C1FC01EE0FFF1FEE0FFF1F0E
:1012B000EE0FFF1FE81BF90BE755FF4F528153302C
:1012C00009F0FFC0FC01EE0FFF1FEE0FFF1FEE0F36
:1012D000FF1FE81BF90BE755FF4F5181543009F010
:1012E000F5C0FC01EE0FFF1FEE0FFF1FEE0FFF1FFB
:1012F000E81BF90BE755FF4F63817481613074403F
:1013000009F0E9C0FC01EE0FFF1FEE0FFF1FEE0F0B
:10131000FF1FE81BF90BE755FF4F85819681892B4D
:1013200009F0DEC0213009F48AC028F0223009F427
:1013300044C080E089C0311112C0411107C08FB78D
:1013400080688FBF89B7816089BF0DC0413059F473
:101350008FB780688FBF89B7826089BF04C0313082
:1013600011F4109260008A81811108C083B78F7BCD
:1013700083BF83B7877F83BF81E066C0813041F43C
:1013800083B78F7B83BF83B7886083BF81E05CC0F6
:10139000823041F483B7806483BF83B7886083BFA2
:1013A00081E052C0833009F04CC083B7806483BFB2
:1013B00083B7877F83BF81E047C0311112C04111DD
:1013C00007C08FB780688FBF89B7806489BF0EC0A0
:1013D000413061F48FB780688FBF89B7806889BF5B
:1013E00005C0313019F482E0809360008A81811158
:1013F00008C085B58F7B85BD85B5877F85BD81E0BC
:1014000023C0813041F485B58F7B85BD85B588606B
:1014100085BD81E019C0823041F485B5806485BD09
:1014200085B5886085BD81E00FC0833061F485B5E6
:10143000806485BD85B5877F85BD81E005C081E07D
:1014400003C081E001C081E0813009F04EC0888195
:10145000282F30E0F901EE0FFF1FEE0FFF1FEE0FF8
:10146000FF1FE21BF30BE755FF4F82838A818183C5
:101470008B819C81948383838D819E8196838583D8
:1014800060E070E0CB0134C06FEF7FEFCB0130C084
:101490006AEF7FEF8FEF9FEF2BC06AEF7FEF8FEF49
:1014A0009FEF26C06AEF7FEF8FEF9FEF21C06AEFBB
:1014B0007FEF8FEF9FEF1CC06BEF7FEF8FEF9FEF02
:1014C00017C06BEF7FEF8FEF9FEF12C06BEF7FEFD7
:1014D0008FEF9FEF0DC06BEF7FEF8FEF9FEF08C097
:1014E0006BEF7FEF8FEF9FEF03C060E070E0CB0109
:1014F000DF91CF910895833008F007C1282F30E0A5
:10150000F901EE0FFF1FEE0FFF1FEE0FFF1FE21B93
:10151000F30BE755FF4F908191113CC0F901EE0F9D
:10152000FF1FEE0FFF1FEE0FFF1FE21BF30BE75530
:10153000FF4F4281433071F5F901EE0FFF1FEE0FAF
:10154000FF1FEE0FFF1FE21BF30BE755FF4F438119
:10155000548141305440F1F4F901EE0FFF1FEE0FBA
:10156000FF1FEE0FFF1FE21BF30BE755FF4F4181FB
:10157000443081F4F901EE0FFF1FEE0FFF1FEE0F55
:10158000FF1FE21BF30BE755FF4F45815681452BAB
:1015900009F4BFC09111C2C0813029F048F08230F7
:1015A00009F44DC093C041E060E070E0CB019DC004
:1015B000F901EE0FFF1FEE0FFF1FEE0FFF1FE21BE3
:1015C000F30BE755FF4F8381948180349105F9F047
:1015D00030F48130910559F0089789F07DC081156C
:1015E00041E09407E1F08115944009F175C083B79B
:1015F000816083BF41E060E070E0CB0176C083B7DB
:10160000826083BF41E060E070E0CB016EC083B7D1
:10161000836083BF41E060E070E0CB0166C083B7C8
:10162000846083BF41E060E070E0CB015EC083B7BF
:10163000856083BF41E060E070E0CB0156C0F901F6
:10164000EE0FFF1FEE0FFF1FEE0FFF1FE21BF30B4E
:10165000E755FF4F8381948180349105F9F030F490
:101660008130910559F0089789F03BC0811541E020
:101670009407E1F08115944009F133C085B581608C
:1016800085BD41E060E070E0CB012FC085B5826090
:1016900085BD41E060E070E0CB0127C085B5836087
:1016A00085BD41E060E070E0CB011FC085B584607E
:1016B00085BD41E060E070E0CB0117C085B5856075
:1016C00085BD41E060E070E0CB010FC040E06AEF13
:1016D0007FEF8FEF9FEF09C041E060E070E0CB014A
:1016E00004C041E060E070E0CB014130D9F4F90181
:1016F000EE0FFF1FEE0FFF1FEE0FFF1FE21BF30B9E
:10170000E755FF4F21E0208308956FEF7FEFCB0176
:1017100008956CEF7FEF8FEF9FEF08956EEF7FEFEF
:101720008FEF9FEF0895CF92DF92EF92FF92833079
:1017300008F063C0411551056105710509F461C0E8
:10174000282F30E0F901EE0FFF1FEE0FFF1FEE0F05
:10175000FF1FE21BF30BE755FF4F908191112BC048
:10176000F901EE0FFF1FEE0FFF1FEE0FFF1FE21B31
:10177000F30BE755FF4FE281E330E9F4F901EE0F97
:10178000FF1FEE0FFF1FEE0FFF1FE21BF30BE755CE
:10179000FF4FE181E43079F4F901EE0FFF1FEE0F06
:1017A000FF1FEE0FFF1FE21BF30BE755FF4F2581D5
:1017B0003681232B51F191112DC06A017B018130BB
:1017C00061F018F0823089F02AC080E00E947B0A24
:1017D000C701B6010E944E0526C081E00E947B0A27
:1017E000C701B6010E94D5051EC082E00E947B0A97
:1017F000C701B6010E945F0616C06FEF7FEFCB01F5
:1018000012C06FEF7FEFCB010EC06CEF7FEF8FEF59
:101810009FEF09C06AEF7FEF8FEF9FEF04C06DEF7E
:101820007FEF8FEF9FEFFF90EF90DF90CF900895C5
:10183000809160000E94E90608955058BB27AA27AE
:101840000E94350C0C940D0D0E94FF0C38F00E9484
:10185000060D20F039F49F3F19F426F40C94FC0C8B
:101860000EF4E095E7FB0C94F60CE92F0E941E0D98
:1018700058F3BA17620773078407950720F079F4C5
:10188000A6F50C94400D0EF4E0950B2EBA2FA02D6A
:101890000B01B90190010C01CA01A0011124FF271D
:1018A000591B99F0593F50F4503E68F11A16F04018
:1018B000A22F232F342F4427585FF3CF4695379517
:1018C0002795A795F0405395C9F77EF41F16BA0BDC
:1018D000620B730B840BBAF09150A1F0FF0FBB1F8A
:1018E000661F771F881FC2F70EC0BA0F621F731FD3
:1018F000841F48F4879577956795B795F7959E3F30
:1019000008F0B0CF9395880F08F09927EE0F9795C0
:10191000879508950E94260D88F09F5798F0B92F5B
:101920009927B751B0F0E1F0660F771F881F991F14
:101930001AF0BA95C9F714C0B13091F00E94400D69
:10194000B1E008950C94400D672F782F8827B85F79
:1019500039F0B93FCCF3869577956795B395D9F76C
:101960003EF490958095709561957F4F8F4F9F4F76
:101970000895E89409C097FB3EF490958095709582
:1019800061957F4F8F4F9F4F9923A9F0F92F96E9CB
:10199000BB279395F695879577956795B795F11140
:1019A000F8CFFAF4BB0F11F460FF1BC06F5F7F4FDD
:1019B0008F4F9F4F16C0882311F096E911C07723EF
:1019C00021F09EE8872F762F05C0662371F096E8F8
:1019D000862F70E060E02AF09A95660F771F881FC7
:1019E000DAF7880F9695879597F9089597F99F6785
:1019F00080E870E060E008959FEF80EC0895002497
:101A00000A941616170618060906089500240A9463
:101A100012161306140605060895092E0394000CE9
:101A200011F4882352F0BB0F40F4BF2B11F460FF78
:101A300004C06F5F7F4F8F4F9F4F089557FD9058A1
:101A4000440F551F59F05F3F71F04795880F97FB82
:101A5000991F61F09F3F79F087950895121613063C
:101A60001406551FF2CF4695F1DF08C0161617066B
:101A70001806991FF1CF86957105610508940895A0
:101A8000E894BB2766277727CB0197F908950E9432
:101A90005A0D0C940D0D0E94FF0C38F00E94060D9B
:101AA00020F0952311F00C94F60C0C94FC0C1124EE
:101AB0000C94410D0E941E0D70F3959FC1F3950F7C
:101AC00050E0551F629FF001729FBB27F00DB11DC2
:101AD000639FAA27F00DB11DAA1F649F6627B00D52
:101AE000A11D661F829F2227B00DA11D621F739F3B
:101AF000B00DA11D621F839FA00D611D221F749F49
:101B00003327A00D611D231F849F600D211D822F8F
:101B1000762F6A2F11249F5750409AF0F1F08823B6
:101B20004AF0EE0FFF1FBB1F661F771F881F9150E3
:101B30005040A9F79E3F510580F00C94F60C0C9490
:101B4000410D5F3FE4F3983ED4F386957795679512
:101B5000B795F795E7959F5FC1F7FE2B880F911D0D
:101B60009695879597F90895A1E21A2EAA1BBB1B9B
:101B7000FD010DC0AA1FBB1FEE1FFF1FA217B30759
:101B8000E407F50720F0A21BB30BE40BF50B661F6F
:101B9000771F881F991F1A9469F760957095809533
:101BA00090959B01AC01BD01CF0108950E94E10D0C
:101BB000A59F900DB49F900DA49F800D911D1124A1
:101BC0000895A29FB001B39FC001A39F700D811D16
:101BD0001124911DB29F700D811D1124911D089536
:041BE000F894FFCFA7
:101BE40003016C63645F77726974655F6F6E655F30
:101BF40062797465006C63645F696E6974000201E4
:0C1C0400010800E8040000000800E804EB
:00000001FF
