:100000000C942A000C9447000C9447000C94470071
:100010000C94CC060C9472060C9447000C94470088
:100020000C9447000C9447000C9400060C94A60511
:100030000C9447000C9447000C9447000C94470024
:100040000C9447000C9447000C9447000C94470014
:100050000C94470011241FBECFE5D8E0DEBFCDBF12
:1000600010E0A0E6B0E0E4E8F5E102C005900D92F2
:10007000A438B107D9F720E0A4E8B0E001C01D9290
:10008000AA3BB207E1F70E94E9040C94C00A0C9461
:1000900000000895843008F097C0683008F098C0D8
:1000A000423008F099C0813051F138F0823009F4C3
:1000B00048C0833009F467C093C041110FC02AB310
:1000C00081E090E002C0880F991F6A95E2F7809561
:1000D00082238ABB60E070E0CB010895413009F0D3
:1000E00083C02AB381E090E002C0880F991F6A950F
:1000F000E2F7822B8ABB60E070E0CB0108954111EA
:100100000FC027B381E090E002C0880F991F6A9565
:10011000E2F78095822387BB60E070E0CB01089511
:10012000413009F065C027B381E090E002C0880F3C
:10013000991F6A95E2F7822B87BB60E070E0CB01E4
:10014000089541110FC024B381E090E002C0880FF0
:10015000991F6A95E2F78095822384BB60E070E086
:10016000CB010895413009F047C024B381E090E00D
:1001700002C0880F991F6A95E2F7822B84BB60E06A
:1001800070E0CB01089541110FC021B381E090E0F0
:1001900002C0880F991F6A95E2F78095822381BB80
:1001A00060E070E0CB010895413051F521B381E06A
:1001B00090E002C0880F991F6A95E2F7822B81BBFD
:1001C00060E070E0CB0108956FEF7FEFCB01089501
:1001D0006FEF7FEFCB0108956FEF7FEFCB010895B5
:1001E00060E070E0CB01089560E070E0CB0108951D
:1001F00060E070E0CB01089560E070E0CB0108950D
:1002000060E070E0CB010895833008F0D2C0643024
:1002100008F0D3C0483008F0D4C0813009F445C09C
:1002200020F0823009F485C0D0C06130A1F028F000
:100230006230F9F0633059F1CCC02BB381E090E02B
:1002400002C0880F991F4A95E2F7822B8BBB60E0B2
:1002500070E0CB01089528B381E090E002C0880FE0
:10026000991F4A95E2F7822B88BB60E070E0CB01D2
:10027000089525B381E090E002C0880F991F4A9548
:10028000E2F7822B85BB60E070E0CB01089522B3DA
:1002900081E090E002C0880F991F4A95E2F7822B17
:1002A00082BB60E070E0CB0108956130A9F028F0D6
:1002B000623009F1633071F190C02BB381E090E0BE
:1002C00002C0880F991F4A95E2F7809582238BBB65
:1002D00060E070E0CB01089528B381E090E002C0B7
:1002E000880F991F4A95E2F78095822388BB60E0CA
:1002F00070E0CB01089525B381E090E002C0880F43
:10030000991F4A95E2F78095822385BB60E070E0F3
:10031000CB01089522B381E090E002C0880F991FBD
:100320004A95E2F78095822382BB60E070E0CB01C2
:1003300008956130A1F028F06230F9F0633059F18E
:1003400050C02BB381E090E002C0880F991F4A95FE
:10035000E2F782278BBB60E070E0CB01089528B301
:1003600081E090E002C0880F991F4A95E2F782274A
:1003700088BB60E070E0CB01089525B381E090E098
:1003800002C0880F991F4A95E2F7822785BB60E07B
:1003900070E0CB01089522B381E090E002C0880FA5
:1003A000991F4A95E2F7822782BB60E070E0CB019B
:1003B00008956FEF7FEFCB0108956FEF7FEFCB01D3
:1003C00008956FEF7FEFCB01089560E070E0CB01FF
:1003D000089560E070E0CB01089560E070E0CB012B
:1003E000089560E070E0CB010895CF92DF92EF9224
:1003F000FF920F931F93CF93823008F082C19091A8
:100400008400913009F082C1C62F882321F0813009
:1004100009F4BCC084C141E061E081E00E940401B4
:100420006B017C01672B682B692B59F009E610E002
:1004300020E030E041E650E060E081E00E944900C9
:1004400076C142E061E081E00E9404016B017C0121
:10045000672B682B692B59F00CE610E020E030E0A8
:1004600041E650E060E081E00E94490060C143E065
:1004700061E081E00E9404016B017C01672B682B25
:10048000692B59F00FE610E020E030E041E650E043
:1004900060E081E00E9449004AC18BB38F709C2FBD
:1004A000907F892B8BBB43E061E080E00E940401D8
:1004B0006B017C01672B682B692B59F006E710E074
:1004C00020E030E041E650E060E081E00E94490039
:1004D0002EC18FE99FE00197F1F700C0000043E0D3
:1004E00061E081E00E9404016B017C01672B682BB5
:1004F000692B59F00BE710E020E030E041E650E0D6
:1005000060E081E00E94490012C120E1C29FC00169
:1005100011249BB39F70892B8BBB43E061E080E08B
:100520000E9404016B017C01672B682B692B59F039
:1005300002E810E020E030E041E650E060E081E0D9
:100540000E944900F4C08FE99FE00197F1F700C0D5
:10055000000043E061E081E00E9404016B017C0146
:10056000672B682B692B59F007E810E020E030E09A
:1005700041E650E060E081E00E944900D8C08FE190
:100580009EE40197F1F700C00000D1C041E061E0B6
:1005900080E00E9404016B017C01672B682B692BB2
:1005A00059F004E910E020E030E041E650E060E07E
:1005B00081E00E944900BBC042E061E081E00E940E
:1005C00004016B017C01672B682B692B59F007E94B
:1005D00010E020E030E041E650E060E081E00E9481
:1005E0004900A5C043E061E081E00E9404016B0185
:1005F0007C01672B682B692B59F00AE910E020E099
:1006000030E041E650E060E081E00E9449008FC0A8
:100610008BB38F709C2F907F892B8BBB43E061E065
:1006200080E00E9404016B017C01672B682B692B21
:1006300059F001EA10E020E030E041E650E060E0EF
:1006400081E00E94490073C08FE99FE00197F1F7B4
:1006500000C0000043E061E081E00E9404016B0102
:100660007C01672B682B692B59F006EA10E020E02B
:1006700030E041E650E060E081E00E94490057C070
:1006800020E1C29FC00111249BB39F70892B8BBBBB
:1006900043E061E080E00E9404016B017C01672B74
:1006A000682B692B59F00DEA10E020E030E041E6BC
:1006B00050E060E081E00E94490039C08FE99FE08E
:1006C0000197F1F700C0000043E061E081E00E9483
:1006D00004016B017C01672B682B692B59F002EB3D
:1006E00010E020E030E041E650E060E081E00E9470
:1006F00049001DC08FE19EE40197F1F700C00000A2
:1007000016C0CC24CA94DC2C760111C00F2EFCEF4D
:10071000CF2EDD24DA94ED2CFD2CF02D08C00F2E09
:10072000FDEFCF2EDD24DA94ED2CFD2CF02DC7014A
:10073000B601CF911F910F91FF90EF90DF90CF9076
:100740000895CF92DF92EF92FF920F931F938091C3
:10075000840081112CC181E08093840041E061E03C
:100760000E944A006B017C01672B682B692B59F0B2
:1007700004E210E020E030E044E750E060E081E097
:100780000E9449001CC141E062E081E00E944A00F1
:100790006B017C01672B682B692B59F006E210E096
:1007A00020E030E044E750E060E081E00E94490052
:1007B00006C141E063E081E00E944A006B017C01D8
:1007C000672B682B692B59F008E210E020E030E03D
:1007D00044E750E060E081E00E944900F0C08FE112
:1007E0009EE40197F1F700C0000041E067E080E07F
:1007F0000E944A006B017C01672B682B692B59F022
:100800000DE210E020E030E044E750E060E081E0FD
:100810000E944900D4C041E066E080E00E944A00A6
:100820006B017C01672B682B692B59F00FE210E0FC
:1008300020E030E044E750E060E081E00E944900C1
:10084000BEC041E065E080E00E944A006B017C018F
:10085000672B682B692B59F001E310E020E030E0B2
:1008600044E750E060E081E00E944900A8C041E018
:1008700064E080E00E944A006B017C01672B682BDA
:10088000692B59F003E310E020E030E044E750E04A
:1008900060E081E00E94490092C063E380E00E9432
:1008A000F5016B017C01672B682B692B59F006E37E
:1008B00010E020E030E044E750E060E081E00E949A
:1008C00049007DC08FE39FE10197F1F700C0000070
:1008D00062E380E00E94F5016B017C01672B682BCD
:1008E000692B59F009E310E020E030E044E750E0E4
:1008F00060E081E00E94490062C08FE39FE10197C0
:10090000F1F700C0000068E280E00E94F5016B0191
:100910007C01672B682B692B59F001E410E020E083
:1009200030E044E750E060E081E00E94490047C0C9
:1009300061E080E00E94F5016B017C01672B682B70
:10094000692B59F005E410E020E030E044E750E086
:1009500060E081E00E94490032C066E080E00E94D1
:10096000F5016B017C01672B682B692B59F007E4BB
:1009700010E020E030E044E750E060E081E00E94D9
:1009800049001DC06CE080E00E94F5016B017C0114
:10099000672B682B692B99F009E410E020E030E028
:1009A00044E750E060E081E00E94490008C00F2E5B
:1009B000FBEFCF2EDD24DA94ED2CFD2CF02DC701BA
:1009C000B6011F910F91FF90EF90DF90CF900895A7
:1009D00008950E94A10340E060E081E00E944A0087
:1009E00041E063E083E00E944A0041E062E082E08F
:1009F0000E944A008DE790E00E94260743E063E0F2
:100A000082E00E94040165E080E00E94CC09B09B76
:100A100006C043E060E080E00E940401F8CF43E0BC
:100A200060E081E00E940401F2CF80E019C0282F2D
:100A300030E0F901EE0FFF1FEE0FFF1FEE0FFF1F5B
:100A4000E21BF30BEB55FF4F93E0928394E091830D
:100A500021E034E0348323831682158210828F5F75
:100A6000833028F308959091AD00923081F5282FBE
:100A700030E0AFEFBFEF0E949D0A24E630E040E097
:100A800050E00E947E0A2093990030939A00409390
:100A90009B0050939C004091990050919A00609166
:100AA0009B0070919C008FEF9FEFA0E0B0E0841B53
:100AB000950BA60BB70B8093950090939600A0938F
:100AC0009700B093980060E070E0CB0108956AEF62
:100AD0007FEF8FEF9FEF08959091B4009250923086
:100AE00080F52FEF829FC001112464E670E00E9420
:100AF000480ACB01770FAA0BBB0B80939900909308
:100B00009A00A0939B00B0939C0040919900509153
:100B10009A0060919B0070919C008FEF90E0A0E0A4
:100B2000B0E0841B950BA60BB70B809395009093B8
:100B30009600A0939700B093980060E070E0CB011E
:100B400008956AEF7FEF8FEF9FEF08951F920F9246
:100B50000FB60F9211242F933F934F935F936F9390
:100B60007F938F939F93AF93BF93EF93FF93809166
:100B7000910090919200A0919300B0919400019601
:100B8000A11DB11D8093910090939200A0939300BA
:100B9000B093940040919100509192006091930025
:100BA000709194008091A1009091A200A091A30067
:100BB000B091A400481759076A077B0781F4109287
:100BC0009100109292001092930010929400E09184
:100BD000AA00F091AB00309711F080E00995FF91E9
:100BE000EF91BF91AF919F918F917F916F915F91A5
:100BF0004F913F912F910F900FBE0F901F9018951E
:100C00001F920F920FB60F9211242F933F934F9381
:100C10005F936F937F938F939F93AF93BF93EF9364
:100C2000FF9380918D0090918E00A0918F00B091E4
:100C30009000892B8A2B8B2B11F580918D00909140
:100C40008E00A0918F00B09190000196A11DB11D62
:100C500080938D0090938E00A0938F00B0939000AE
:100C600042E062E082E00E94040180919500909150
:100C70009600A0919700B09198008CBF22C08091FF
:100C80008D0090918E00A0918F00B09190000197FF
:100C9000A105B105B1F410928D0010928E00109252
:100CA0008F001092900042E062E082E00E94040116
:100CB0008091990090919A00A0919B00B0919C0026
:100CC0008CBFFF91EF91BF91AF919F918F917F91D9
:100CD0006F915F914F913F912F910F900FBE0F90A9
:100CE0001F9018951F920F920FB60F9211242F93F9
:100CF0003F934F935F936F937F938F939F93AF93A4
:100D0000BF93EF93FF938091890090918A00A09107
:100D10008B00B0918C000196A11DB11D80938900BC
:100D200090938A00A0938B00B0938C00409189002F
:100D300050918A0060918B0070918C0080919D0091
:100D400090919E00A0919F00B091A0004817590774
:100D50006A077B0781F41092890010928A00109232
:100D60008B0010928C00E091B800F091B9003097A0
:100D700011F082E00995FF91EF91BF91AF919F91A2
:100D80008F917F916F915F914F913F912F910F9034
:100D90000FBE0F901F9018951F920F920FB60F92D3
:100DA00011242F933F934F935F936F937F938F9370
:100DB0009F93AF93BF93EF93FF93809185009091A2
:100DC0008600A0918700B09188000196A11DB11DF9
:100DD0008093850090938600A0938700B09388004D
:100DE0004091850050918600609187007091880045
:100DF00080919D0090919E00A0919F00B091A000D5
:100E0000481759076A077B0781F4109285001092F2
:100E100086001092870010928800E091B800F0914F
:100E2000B900309711F082E00995FF91EF91BF91E1
:100E3000AF919F918F917F916F915F914F913F9172
:100E40002F910F900FBE0F901F901895CF93DF93A7
:100E5000009709F40DC1EC0180916000813021F40C
:100E60000E941505109260002881233008F004C10B
:100E70003981323008F005C14A81443008F006C19A
:100E80008D819E81892B09F406C1822F90E0FC019F
:100E9000EE0FFF1FEE0FFF1FEE0FFF1FE81BF90BFA
:100EA000EB55FF4F50815111FBC0FC01EE0FFF1FAE
:100EB000EE0FFF1FEE0FFF1FE81BF90BEB55FF4F67
:100EC0005281533009F0F1C0FC01EE0FFF1FEE0F0D
:100ED000FF1FEE0FFF1FE81BF90BEB55FF4F518172
:100EE000543009F0E7C0FC01EE0FFF1FEE0FFF1FAB
:100EF000EE0FFF1FE81BF90BEB55FF4F6381748169
:100F00006130744009F0DBC0FC01EE0FFF1FEE0FF3
:100F1000FF1FEE0FFF1FE81BF90BEB55FF4F8581FD
:100F20009681892B09F0D0C0213009F47CC020F0D3
:100F30002230E9F180E07CC031110FC0411107C0BF
:100F40008FB780688FBF89B7816089BF06C08FB7B0
:100F500080688FBF89B7826089BF8A81811108C08C
:100F600083B78F7B83BF83B7877F83BF81E060C0F8
:100F7000813041F483B78F7B83BF83B7886083BFA1
:100F800081E056C0823041F483B7806483BF83B769
:100F9000886083BF81E04CC0833009F046C083B7CE
:100FA000806483BF83B7877F83BF81E041C03111F5
:100FB00011C0411107C08FB780688FBF89B78064A7
:100FC00089BF08C0413031F48FB780688FBF89B7BF
:100FD000806889BF8A81811108C085B58F7B85BDF6
:100FE00085B5877F85BD81E023C0813041F485B51B
:100FF0008F7B85BD85B5886085BD81E019C0823055
:1010000041F485B5806485BD85B5886085BD81E086
:101010000FC0833061F485B5806485BD85B5877F59
:1010200085BD81E005C081E003C081E001C081E0B1
:10103000813009F04EC08881282F30E0F901EE0F91
:10104000FF1FEE0FFF1FEE0FFF1FE21BF30BEB5511
:10105000FF4F82838A8181838B819C8194838383E8
:101060008D819E819683858360E070E0CB0134C0E2
:101070006FEF7FEFCB0130C06AEF7FEF8FEF9FEF15
:101080002BC06AEF7FEF8FEF9FEF26C06AEF7FEFF5
:101090008FEF9FEF21C06AEF7FEF8FEF9FEF1CC0B4
:1010A0006BEF7FEF8FEF9FEF17C06BEF7FEF8FEF4F
:1010B0009FEF12C06BEF7FEF8FEF9FEF0DC06BEFD5
:1010C0007FEF8FEF9FEF08C06BEF7FEF8FEF9FEF0A
:1010D00003C060E070E0CB01DF91CF9108958330D1
:1010E00008F007C1282F30E0F901EE0FFF1FEE0FC7
:1010F000FF1FEE0FFF1FE21BF30BEB55FF4F90811D
:1011000091113CC0F901EE0FFF1FEE0FFF1FEE0F14
:10111000FF1FE21BF30BEB55FF4F4281433071F58C
:10112000F901EE0FFF1FEE0FFF1FEE0FFF1FE21B77
:10113000F30BEB55FF4F4381548141305440F1F4A0
:10114000F901EE0FFF1FEE0FFF1FEE0FFF1FE21B57
:10115000F30BEB55FF4F4181443081F4F901EE0F61
:10116000FF1FEE0FFF1FEE0FFF1FE21BF30BEB55F0
:10117000FF4F45815681452B09F4BFC09111C2C074
:10118000813029F048F0823009F44DC093C041E02D
:1011900060E070E0CB019DC0F901EE0FFF1FEE0F84
:1011A000FF1FEE0FFF1FE21BF30BEB55FF4F838179
:1011B000948180349105F9F030F48130910559F033
:1011C000089789F07DC0811541E09407E1F0811511
:1011D000944009F175C083B7816083BF41E060E04E
:1011E00070E0CB0176C083B7826083BF41E060E0EE
:1011F00070E0CB016EC083B7836083BF41E060E0E5
:1012000070E0CB0166C083B7846083BF41E060E0DB
:1012100070E0CB015EC083B7856083BF41E060E0D2
:1012200070E0CB0156C0F901EE0FFF1FEE0FFF1F5C
:10123000EE0FFF1FE21BF30BEB55FF4F83819481F1
:1012400080349105F9F030F48130910559F0089718
:1012500089F03BC0811541E09407E1F0811594408D
:1012600009F133C085B5816085BD41E060E070E083
:10127000CB012FC085B5826085BD41E060E070E0A4
:10128000CB0127C085B5836085BD41E060E070E09B
:10129000CB011FC085B5846085BD41E060E070E092
:1012A000CB0117C085B5856085BD41E060E070E089
:1012B000CB010FC040E06AEF7FEF8FEF9FEF09C0D7
:1012C00041E060E070E0CB0104C041E060E070E02C
:1012D000CB014130D9F4F901EE0FFF1FEE0FFF1FD4
:1012E000EE0FFF1FE21BF30BEB55FF4F21E02083B6
:1012F00008956FEF7FEFCB0108956CEF7FEF8FEFD5
:101300009FEF08956EEF7FEF8FEF9FEF089590911D
:10131000A6009230E1F52FEF829FC001112464E610
:1013200070E00E94480ACB01770FAA0BBB0B809399
:10133000990090939A00A0939B00B0939C004091D9
:10134000990050919A0060919B0070919C008FEFE2
:1013500090E0A0E0B0E0841B950BA60BB70B809348
:10136000950090939600A0939700B093980080E02A
:101370000E946F088091990090919A00A0919B0023
:10138000B0919C008CBF60E070E0CB0108956AEFE3
:101390007FEF8FEF9FEF0895CF93833008F05CC00D
:1013A000662309F45DC0643608F05EC0282F30E083
:1013B000F901EE0FFF1FEE0FFF1FEE0FFF1FE21BE5
:1013C000F30BEB55FF4F908191112BC0F901EE0FFC
:1013D000FF1FEE0FFF1FEE0FFF1FE21BF30BEB557E
:1013E000FF4F42814330E9F4F901EE0FFF1FEE0F8A
:1013F000FF1FEE0FFF1FE21BF30BEB55FF4F418169
:10140000443079F4F901EE0FFF1FEE0FFF1FEE0FCE
:10141000FF1FE21BF30BEB55FF4F25813681232B7A
:1014200039F191112AC0C62F813041F018F0823075
:1014300061F028C0862F0E94870928C081E00E94A1
:101440006F088C2F0E94330521C082E00E946F0834
:101450008C2F0E946C051AC06FEF7FEFCB0116C076
:101460006FEF7FEFCB0112C06FEF7FEFCB010EC0AC
:101470006CEF7FEF8FEF9FEF09C06AEF7FEF8FEF89
:101480009FEF04C06DEF7FEF8FEF9FEFCF91089537
:1014900097FB072E16F4009407D077FD09D00E9421
:1014A000AC0A07FC05D03EF4909581959F4F0895B6
:1014B000709561957F4F0895A1E21A2EAA1BBB1B60
:1014C000FD010DC0AA1FBB1FEE1FFF1FA217B30710
:1014D000E407F50720F0A21BB30BE40BF50B661F26
:1014E000771F881F991F1A9469F7609570958095EA
:1014F00090959B01AC01BD01CF010895052E97FB8E
:101500001EF400940E94950A57FD07D00E945C0AC1
:1015100007FC03D04EF40C94950A509540953095F5
:1015200021953F4F4F4F5F4F08959095809570954F
:1015300061957F4F8F4F9F4F0895A29FB001B39F3A
:10154000C001A39F700D811D1124911DB29F700DCC
:10155000811D1124911D0895AA1BBB1B51E107C0D9
:10156000AA1FBB1FA617B70710F0A61BB70B881F33
:10157000991F5A95A9F780959095BC01CD010895C2
:04158000F894FFCF0D
:10158400016C63645F77726974655F6F6E655F6237
:10159400797465006C63645F696E697400000002AD
:0415A4000800E8044F
:00000001FF
